:020000040000fa
:080000000002040000000000f2
:020000040000fa
:10040000cfff20000e7f22000e01880000000000b8
:1004100000012000200288000c000700204c2d0065
:100420000100200011000700000020000000e00093
:10043000020032000000020000000000e8d10200cb
:10044000000000000040da000000fe004440a90067
:1004500020e824000000e00003003200000020003b
:10046000a00188004440a800000006009101880017
:10047000800078000000eb0015003700e2804000ab
:1004800032a0b4009101ba00e280400032a0b40072
:100490009102ba00e280400032a0b4000002eb00fa
:1004a000472bde00f507b200602ce10004003a00a3
:1004b0000059eb008301e900fdff3e000400370016
:1004c0006128e100010032000082eb000400070017
:1004d0001101ba000200e000e8ff3a000000060047
:1004e0003159ba008301e9000c0032002159ba00e9
:1004f0008301e900080032000400e00003003a0034
:10050000e280400032a0b400f5ff370011d9ba00f4
:100510008301e900faff3a008100e800e180400031
:1005200032a0b400000006005acf04000000000012
:10053000c6b6040000000000dcb5040000000000a6
:10054000ecb9040000000000c6c704000000000071
:1005500094c7040000000000eea9040000000000a1
:1005600076a6040000000000c2ad040000000000f8
:10057000a4cd04000000000072cd040000000000c3
:1005800096c904000000000098d10400000000009b
:1005900094d104000000000000a0fe00849fbe0073
:1005a0003400f80004002000a40188008760a9003e
:1005b000245e8000355e800061024200e0824a00d5
:1005c000245e8800355e88003400f9004f02be00ca
:1005d0000080fe00004006001421ef0004e2240029
:1005e000d408880004012a00f40888008760a90064
:1005f0009760a8001fe1a800000006001800fa009c
:1006000024002000c4b79f0030002000d0b79f0016
:1006100077002000e7b79f0016c0b300e6ef9f0009
:100620001505200085bf9f000042eb00a4f79f0046
:1006300011002000a1bf9f00b0bf9f00c7bf9f0057
:10064000a6ff9f00e5bf9f00e4ff9f00cbe2a9004b
:10065000c7e2a900e522a900e922a800c642a90034
:10066000ca42a800dec2a900df02a900dee2a8009b
:100670007880570062c30200000000006c805700c1
:1006800016ca0200000000006ed502000000000043
:1006900062cf020000000000beb1020000000000b6
:1006a000cdff07000080fa00000006003400f800cb
:1006b000881f780008002000a80188004f047800f7
:1006c000000000000000000000000000fcff3700f8
:1006d0003400f800881f780008002000a801880076
:1006e0004f0478000000000000000000000000003f
:1006f000fcff37003400f800881f78000800200055
:10070000a80188004f0478000000000000000000ed
:1007100000000000fcff37003400f800881f78005c
:1007200008002000a80188004f04780000000000a5
:100730000000000000000000fcff37003400f8005b
:10074000881f780008002000a80188004f04780066
:10075000000000000000000000000000fcff370067
:1007600003f0a200889fbe008a9fbe008c1f780005
:10077000b7000700be0033006450e1004f003200b4
:100780006420e1005200320003826c0007003b004d
:100790000905d0000306d000820f54000c065d004e
:1007a0000200390002003200890178000306780057
:1007b0008582550004003d000003fd008103fd001b
:1007c0008502ea008b854200840f720002003b0024
:1007d00060001000e08018006011b8000005eb0018
:1007e0007a28e1000a00390006007800c75ddd00c4
:1007f000f707b200878075002d00370082817100f5
:100800000a017800610560008180d1000080d3007a
:100810008502e900f9ff3b00060440008784480098
:1008200002003b0060041400e0841c000988a3005f
:10083000070032008a8171008281710061016400c9
:100840008904d1000884d3008b05e8001700370025
:100850000978a30013003a000b00e00013003400f5
:100860008b05e9000804440089844c000a447400a4
:100870000978a3000d003a000b00e00007003400e7
:100880008b05e9000804440089844c0001003a000b
:100890000b0020000978a300f7ff32000001eb00f5
:1008a00002003700828171000a0178002d000700e4
:1008b0000cf0a70001f0a000760037006420e100f2
:1008c00002003a00838f6c00760033000801be00fe
:1008d0000200be006f0037000001be0047000700a5
:1008e0000470a70003f0a1006509b10016003200f2
:1008f0000d0035006828e10006003500f0ff2f00ec
:10090000f1ff27000300e00013003b000100280076
:100910000000050000004000818048008502e900d9
:10092000fcff3a0008003700f88f420002003c004c
:100930008000eb00000005008100d1000080d300a2
:100940008502e800fcff3a000300e00002003b00e3
:1009500060001000e0801800000006006011b80080
:100960009700370081002000618055000b003d009a
:100970000b00200061fe2f000100e1001d0034008b
:1009800082817100610164008904d1000884d30070
:100990000000e800faff3a007100200061006400e6
:1009a000030070000200600009003200610444008e
:1009b000e0844c000988a500050032008b05e800a2
:1009c0006808e10002003a008904d1000884d300dd
:1009d000f20f20000258e10005003d00c75ddd0078
:1009e000f907b20089807500080078000000060051
:1009f0000bf827008b00780000000500c70ade0016
:100a0000f107b200f50fb20008003200e1cf42005a
:100a1000020032000170a00024000500810f700068
:100a2000010032000408050044000500810f700039
:100a300002003a00140005008502e90000004000b1
:100a400081c04800fcff3b000170a00024000500ad
:100a50000004be00e9ff07000003be000405be005d
:100a60000200be00e5ff0700844f7500000006008d
:100a70000200be006450e100050036006420e10081
:100a8000020036000968a30001003a000800be0019
:100a90000160a0004f0678004f05be004f04be0065
:100aa00000000600f0ff2f00f1ff2700f9ff3700dc
:100ab000889fbe008a9fbe008c1f7800e4ff07005d
:100ac000ebff330003866c006450e1002400320029
:100ad0006420e100270032006150e1002200320072
:100ae0006120e100210032008b854200eb07b1005c
:100af0000134b800003ab8000804420089844a0072
:100b0000013ab8000030b8008880400009014a006e
:100b100004003300000040008180480002014900c9
:100b20008b05e900c909dd00830170000100320076
:100b300013002000c814de004814dd004709de0061
:100b40001200b200c808de000884700085ff0700ac
:100b500001f0a1000cf0a70001f0a000cdff3700cc
:100b60006120e100cfff32000801be000200be009c
:100b7000f7ff37006150e100fcff3a00c9ff370082
:100b80006022b800060220000000d0008180d20060
:100b90000482d2008582d2000000a000020252002e
:100ba00083825a00030031000202420083824a001d
:100bb0000000a1000603e900f3ff3a000000060070
:100bc000889fbe008a9fbe000082700004027100f0
:100bd00004827100260032000004be000200be0044
:100be0006011b8006b092000950220000182cf003f
:100bf0000a0039000541b1000082cf00070039002a
:100c00000541b1000982cf00040039000541b1005f
:100c10000882cf00010039000541b10005425200b1
:100c2000120032000a003b00828171006101640001
:100c30008100d1000080d3008984d3000884d300d0
:100c40008b05e8000442e800f7ff3a000700370090
:100c50000804440089844c0000004800818048005a
:100c60008b05e9000442e900f9ff3a003dff070067
:100c70004f05be004f04be0000000600e487470099
:100c8000889fbe008a9fbe008c9fbe008e1f78008a
:100c9000a4be2000555f8000e08f52000b003a0098
:100ca000e4024200555f8800a55f88002402980096
:100cb000945f8800a44290000504a000254298009b
:100cc000e44290000504a0006542980067044000db
:100cd0004244de004244dd00925f8000c4bf200039
:100ce000c9ff200084845400250020001100090061
:100cf0008504d80080bf9f00050744000e07470009
:100d00000003eb00e4054400fcff2000040656004d
:100d10000806460002003700160020000d0178008a
:100d20002242900061026200020032000a00370095
:100d30001509780092027800254290006102620055
:100d4000fbff320008024100848f5200020039008c
:100d5000e00f54003f003d00920678000d00a10016
:100d6000828f5600edff3e00e10f5300eaff3a008c
:100d70000fba9700840f540002003600890f540008
:100d8000100039006143b800614ab900b0ff2f007c
:100d9000010020000402500085825800840f530097
:100da000858f5b00020035000b05780006003700d8
:100db000110009000986d8000982b90004057800ed
:100dc000010037000e0578000a007800890007004e
:100dd000e10f400005003a000b0578000b00780099
:100de00084000700e10f40002b003200a45f800068
:100df000000a7800a45f800064034200a4429000cf
:100e0000860f5000020032000504a00001003700e8
:100e10000504a10025429800640555000a0540001c
:100e20000a087800aa5f8800a4be2000040d78009c
:100e3000a55f8000254290000404a000a442980011
:100e4000204290000404a100244098000003eb001d
:100e5000b2ff3700945f8800848f5200070036008d
:100e60001403be00b65f8800c75f8800120a7800ce
:100e70008042eb00945f800025429800975f8000dd
:100e800007097800224290000404a0002441980041
:100e900064004100010037000000eb004f077800bc
:100ea0004f06be004f05be004f04be004f00b1000c
:100eb00000000600e00f50000800320064005000ff
:100ec000945f8000840f500001003100905f880023
:100ed000204290000404a100244098000000060075
:100ee000889fbe008a9fbe000004be00e08f5400b1
:100ef00005003a00e00f540032003200080078008c
:100f0000ecff070030003700e00f540004003a0007
:100f10000900780059ff0700800478002a00370094
:100f2000640254009405780068fa97006102620038
:100f30000200320008007800deff07000900780098
:100f40004eff070080047800e08f54001e0032003e
:100f5000888f54001b00320069bd970009055500b9
:100f600042d5de0088855500c2ddde000a0178002a
:100f70008b0f5500010036000b0178004211dd0097
:100f8000880078000900780013000700888f54005b
:100f90000d0031004255dd000a854400880f5500e0
:100fa000090036000804550042c4de004244dd005a
:100fb00008844400b45f8000c55f8000048cbe00dc
:100fc0000100370088047800090078004f05be0052
:100fd0004f04be0000000600000278000200370047
:100fe000315a78000201e900e00f5100fcff3a009d
:100ff00000000600889fbe0080047800d05f80005b
:10100000e00f500004003a000e0007000084eb00df
:10101000e00f500008003500d85f8000e08f5400da
:10102000050032000900440006000700e00f5000f0
:1010300001003d000084eb00080078004f04be0072
:1010400000000600e00f500004003a00c4bf20007a
:10105000d45f880000027800060037000082eb00b1
:10106000c5ff2000850f500002003e00d05f8800c1
:0c1070000002eb00040078000000060005
:020000040000fa
:1000080056030000680300007a0300008c03000018
:100018009e0300005603000056030000560300002c
:100028005603000056030000560300005603000064
:100038005603000056030000560300005603000054
:10004800c8d3000056030000560300005603000002
:100058005603000056030000560300005603000034
:100068005603000056030000560300005603000024
:100078005603000056030000560300005603000014
:10008800560300005603000056030000cc0200008f
:1000980056030000560300005603000056030000f4
:1000a80056030000560300005603000056030000e4
:1000b80056030000560300005603000056030000d4
:1000c80056030000560300005603000056030000c4
:1000d80056030000560300005603000056030000b4
:1000e80056030000560300005603000056030000a4
:1000f8005603000056030000560300005603000094
:100108005603000056030000560300005603000083
:100118005603000056030000560300005603000073
:100128005603000056030000560300005603000063
:100138005603000056030000560300005603000053
:100148005603000056030000560300005603000043
:100158005603000056030000560300005603000033
:100168005603000056030000560300005603000023
:100178005603000056030000560300005603000013
:100188005603000056030000560300005603000003
:1001980056030000560300005603000056030000f3
:1001a80056030000560300005603000056030000e3
:1001b80056030000560300005603000056030000d3
:1001c80056030000560300005603000056030000c3
:1001d80056030000560300005603000056030000b3
:1001e80056030000560300005603000056030000a3
:0801f80056030000560300004d
:020000040000fa
:1002080056030000680300007a0300008c03000016
:100218009e0300005603000056030000560300002a
:100228005603000056030000560300005603000062
:100238005603000056030000560300005603000052
:10024800c8d3000056030000560300005603000000
:100258005603000056030000560300005603000032
:100268005603000056030000560300005603000022
:100278005603000056030000560300005603000012
:10028800560300005603000056030000cc0200008d
:1002980056030000560300005603000056030000f2
:1002a80056030000560300005603000056030000e2
:1002b80056030000560300005603000056030000d2
:1002c80056030000560300005603000056030000c2
:1002d80056030000560300005603000056030000b2
:1002e80056030000560300005603000056030000a2
:1002f8005603000056030000560300005603000092
:100308005603000056030000560300005603000081
:100318005603000056030000560300005603000071
:100328005603000056030000560300005603000061
:100338005603000056030000560300005603000051
:100348005603000056030000560300005603000041
:100358005603000056030000560300005603000031
:100368005603000056030000560300005603000021
:100378005603000056030000560300005603000011
:100388005603000056030000560300005603000001
:1003980056030000560300005603000056030000f1
:1003a80056030000560300005603000056030000e1
:1003b80056030000560300005603000056030000d1
:1003c80056030000560300005603000056030000c1
:1003d80056030000560300005603000056030000b1
:1003e80056030000560300005603000056030000a1
:0803f80056030000560300004b
:020000040000fa
:020000040002f8
:04affc007f3f000093
:020000040000fa
:020000040002f8
:04aff800bdfb00009d
:020000040000fa
:10107c0000000000200000007e00000010000000b6
:10108c000484000001000000059400000100000031
:10109c0006a40000010000000ab4000001000000da
:1010ac0008d40000010000000de400000100000065
:1010bc000a040000020000000324000002000000eb
:1010cc00053400000200000005440000020000008e
:1010dc0008540000020000000a6400000200000036
:1010ec0004840000020000000594000002000000cf
:1010fc0004a400000200000005b40000020000007f
:10110c0008c400000200000008d400000200000027
:10111c0008e400000200000008f4000002000000d7
:10112c000804000003000000081400000300000085
:10113c000824000003000000083400000300000035
:10114c0008440000030000000854000003000000e5
:10115c00056400000300000005740000030000009b
:10116c000a840000030000000aa400000300000031
:10117c000ac400000300000007e4000003000000a4
:10118c000cf4000003000000081400000400000030
:10119c0008240000040000000834000004000000d3
:1011ac000944000004000000086400000400000072
:1011bc000774000004000000098400000400000013
:1011cc0009a400000400000005c400000400000095
:1011dc0005d400000400000008e400000400000036
:1011ec0007f40000040000000a04000005000000e1
:1011fc00092400000500000009440000050000005f
:10120c0007640000050000000974000005000000e0
:10121c00089400000500000008a400000500000070
:10122c0007b400000500000009c400000500000020
:10123c0008e40000050000000df4000005000000ab
:10124c00081400000600000007240000060000003f
:10125c0008340000060000000544000006000000f1
:10126c0005540000060000000564000006000000a4
:10127c000a7400000600000008940000060000003c
:10128c0008a400000600000007b4000006000000df
:10129c0007c400000600000006d400000600000091
:1012ac0007e400000600000007f400000600000040
:1012bc0004040000070000000714000007000000f1
:1012cc0008240000070000000334000007000000a1
:1012dc000444000007000000075400000700000051
:1012ec0003640000070000000c74000007000000fd
:1012fc00089400000700000007a40000070000008d
:10130c0007b400000700000007c40000070000003d
:10131c0005d400000700000006e4000007000000f0
:10132c0005f400000700000008040000080000009d
:10133c0007140000080000000a2400000800000048
:10134c0007440000080000000754000008000000db
:10135c00066400000800000008740000080000008b
:10136c00058400000800000008940000080000003c
:10137c000aa40000080000000000000000000000ab
:10138c000000000000000000000000000000000051
:10139c000000000000000000000000000000000041
:1013ac000404000004040000040400000400000015
:1013bc00040000000000000000000000001200000b
:1013cc0012120000000000000000000000000000ed
:1013dc000000000000000000000000000000000001
:1013ec0000000000000000009000000090000000d1
:1013fc0048000000fc01000048000000480000000c
:10140c00fe0000002400000024000000000000008a
:10141c0000000000000000000000000000080000b8
:10142c00087c00000a0a00000c3800004848000044
:10143c003e08000008000000000000000000000052
:10144c0000000000000000000c01000092000000f1
:10145c0092000000520000004c0600002009000021
:10146c002009000020090000100600000000000008
:10147c000000000000000000000000000000000060
:10148c0000000000000000001c0000002200000012
:10149c0022000000220000009c000000a2000000be
:1014ac004200000042000000bc01000000000000ef
:1014bc00000000000000000000000000000200001e
:1014cc00020200000000000000000000000000000c
:1014dc0000000000000000000000000000080000f8
:1014ec0004040000020200000202000002020000dc
:1014fc0004040000080000000000000000020000ce
:10150c000404000008080000080800000808000097
:10151c0004040000020000000000000000080000ad
:10152c002a1c00002a080000000000000000000037
:10153c00000000000000000000000000000000009f
:10154c00000000000000000000000000000000008f
:10155c00100000001000000010000000fe00000051
:10156c00100000001000000010000000000000003f
:10157c00000000000000000000000000000000005f
:10158c00000000000000000000000000000400004b
:10159c000404000002000000000000000000000035
:1015ac000000000000000000001e00000000000011
:1015bc00000000000000000000000000000000001f
:1015cc00000000000000000000000000000400000b
:1015dc0004000000000000000000000000100000eb
:1015ec0010080000080800000404000004020000b9
:1015fc0002020000010000000000000000000000da
:10160c003c420000424200004242000042420000c4
:10161c003c00000000000000000000000000000082
:10162c00101c000010100000101000001010000022
:10163c007c00000000000000000000000000000022
:10164c003c42000042400000201800000402000050
:10165c007e00000000000000000000000000000000
:10166c003c42000040400000384000004042000076
:10167c003c00000000000000000000000000000022
:10168c00203000002824000022fe00002020000052
:10169c00200000000000000000000000000000001e
:1016ac007e020000023e000040400000404200006c
:1016bc003c000000000000000000000000000000e2
:1016cc0038040000023e000042420000424200008a
:1016dc003c000000000000000000000000000000c2
:1016ec007e400000202000001010000008080000c0
:1016fc0004000000000000000000000000000000da
:10170c003c420000424200003c42000042420000c9
:10171c003c00000000000000000000000000000081
:10172c003c42000042420000427c0000402000008d
:10173c001c00000000000000000000000000000081
:10174c000000000004040000000000000004000081
:10175c000400000000000000000000000000000079
:10176c000000000004040000000000000004000061
:10177c000404000002000000000000000000000053
:10178c00000000000000000000000000000000004d
:10179c00c0000000300000000c000000020000003f
:1017ac000c00000030000000c00000000000000031
:1017bc00000000000000000000000000000000001d
:1017cc00000000000000000000000000000000000d
:1017dc0000000000fe00000000000000fe00000001
:1017ec0000000000000000000000000000000000ed
:1017fc0000000000000000000000000000000000dd
:10180c0000000000000000000000000000000000cc
:10181c0006000000180000006000000080000000be
:10182c00600000001800000006000000000000002e
:10183c00000000000000000000000000000000009c
:10184c001c220000202000001808000008000000e6
:10185c000800000000000000000000000000000074
:10186c000000000000000000f00000000c0300006d
:10187c00e4020000920400009204000092040000b4
:10188c0092040000e40300000c000000f0000000d3
:10189c00000000000000000000000000000000003c
:1018ac001818000024240000424200007e81000031
:1018bc00810000000000000000000000000000009b
:1018cc001e220000222200003e4200004242000084
:1018dc003e000000000000000000000000000000be
:1018ec007884000002020000020200000284000062
:1018fc007800000000000000000000000000000064
:10190c0000000000000000003e000000420000004b
:10191c0082000000820000008200000082000000b3
:10192c0082000000420000003e00000000000000a9
:10193c00000000000000000000000000000000009b
:10194c007e020000020200007e0200000202000083
:10195c007e000000000000000000000000000000fd
:10196c007e020000020200003e02000002020000a3
:10197c000200000000000000000000000000000059
:10198c00000000000000000078000000840000004f
:10199c000200000002000000e200000082000000d3
:1019ac0082000000840000007800000000000000ad
:1019bc00000000000000000000000000000000001b
:1019cc000000000000000000820000008200000007
:1019dc008200000082000000fe0000008200000077
:1019ec008200000082000000820000000000000065
:1019fc0000000000000000000000000000000000db
:101a0c000e040000040400000404000004040000a0
:101a1c000e000000000000000000000000000000ac
:101a2c000e08000008080000080800000808000064
:101a3c000700000000000000000000000000000093
:101a4c0042220000120a0000060a000012220000c6
:101a5c004200000000000000000000000000000038
:101a6c00020200000202000002020000020200005a
:101a7c007e000000000000000000000000000000dc
:101a8c00000000000000000086010000860100003c
:101a9c004a0100004a0100004a0100003201000026
:101aac0032010000020100000201000000000000f1
:101abc00000000000000000000000000000000001a
:101acc0000000000000000008600000086000000fe
:101adc008a0000008a00000092000000a2000000b2
:101aec00a2000000c2000000c200000000000000c4
:101afc0000000000000000000000000000000000da
:101b0c0000000000000000007800000084000000cd
:101b1c0002010000020100000201000002010000ad
:101b2c0002010000840000007800000000000000aa
:101b3c000000000000000000000000000000000099
:101b4c003e42000042420000423e00000202000001
:101b5c000200000000000000000000000000000077
:101b6c00000000000000000078000000840000006d
:101b7c00020100000201000002010000020100004d
:101b8c00020100008400000078000000400000000a
:101b9c0080010000000000000000000000000000b8
:101bac003e420000424200003e1200002242000071
:101bbc008200000000000000000000000000000097
:101bcc003c420000020200003c4000004042000089
:101bdc003c000000000000000000000000000000bd
:101bec007f08000008080000080800000808000032
:101bfc0008000000000000000000000000000000d1
:101c0c0000000000000000008200000082000000c4
:101c1c0082000000820000008200000082000000b0
:101c2c0082000000440000003800000000000000aa
:101c3c000000000000000000000000000000000098
:101c4c008181000042420000422400002418000060
:101c5c001800000000000000000000000000000060
:101c6c0000000000000000004208000042080000d4
:101c7c00a2080000a2080000a40400001405000043
:101c8c00140500000802000008020000000000001b
:101c9c000000000000000000000000000000000038
:101cac0042420000241800001818000024420000d2
:101cbc0042000000000000000000000000000000d6
:101ccc00412200002214000008080000080800004f
:101cdc0008000000000000000000000000000000f0
:101cec007e400000201000000808000004020000e4
:101cfc007e0000000000000000000000000e00004c
:101d0c0002020000020200000202000002020000b7
:101d1c00020200000e0000000000000000010000a4
:101d2c00010200000202000004040000040800008c
:101d3c00080800001000000000000000000e000069
:101d4c000808000008080000080800000808000047
:101d5c00080800000e000000000000000000000059
:101d6c0000000000000000003000000048000000ef
:101d7c0084000000020100000000000000000000d0
:101d8c000000000000000000000000000000000047
:101d9c000000000000000000000000000000000037
:101dac000000000000000000000000000000000027
:101dbc0000000000ff000000000000000004000014
:101dcc0008000000000000000000000000000000ff
:101ddc0000000000000000000000000000000000f7
:101dec00000000003c400000407c0000424200002b
:101dfc007c00000000000000000000000002000059
:101e0c00020200003a46000042420000424200003a
:101e1c003e00000000000000000000000000000078
:101e2c00000000001c220000020200000222000040
:101e3c001c0000000000000000000000004000003a
:101e4c00404000007c420000424200004262000020
:101e5c005c0000000000000000000000000000001a
:101e6c00000000003c420000427e000002420000e4
:101e7c003c0000000000000000000000000c00000e
:101e8c00020200000f020000020200000202000029
:101e9c000200000000000000000000000000000034
:101eac00000000007c420000424200004262000040
:101ebc005c4000003c00000000000000000200003c
:101ecc00020200003a46000042420000424200007a
:101edc0042000000000000000000000000020000b2
:101eec0000000000020200000202000002020000da
:101efc0002000000000000000000000000040000d0
:101f0c0000000000060400000404000004040000ab
:101f1c0004040000030000000000000000020000a8
:101f2c0002020000221200000a0600000a12000041
:101f3c002200000000000000000000000002000071
:101f4c000202000002020000020200000202000075
:101f5c000200000000000000000000000000000073
:101f6c000000000000000000000000000000000065
:101f7c00de0100002202000022020000220200000a
:101f8c0022020000220200002202000000000000d9
:101f9c000000000000000000000000000000000035
:101fac00000000003a46000042420000424200009d
:101fbc0042000000000000000000000000000000d3
:101fcc00000000003c42000042420000424200007f
:101fdc003c000000000000000000000000000000b9
:101fec00000000003a46000042420000424200005d
:101ffc003e02000002000000000000000000000093
:10200c00000000007c4200004242000042620000de
:10201c005c400000400000000000000000000000d8
:10202c00000000001a06000002020000020200007c
:10203c000200000000000000000000000000000092
:10204c00000000003c020000021c000020200000e8
:10205c001e00000000000000000000000000000056
:10206c00020200001f020000020200000202000037
:10207c001c00000000000000000000000000000038
:10208c000000000042420000424200004262000098
:10209c005c000000000000000000000000000000d8
:1020ac00000000002222000014140000140800009c
:1020bc00080000000000000000000000000000000c
:1020cc000000000000000000000000000000000004
:1020dc002202000022020000540100005401000002
:1020ec00540100008800000088000000000000007f
:1020fc0000000000000000000000000000000000d4
:10210c00000000002222000014080000142200002d
:10211c002200000000000000000000000000000091
:10212c00000000002222000014140000140800001b
:10213c00080800000400000000000000000000007f
:10214c00000000003e200000100800000402000007
:10215c003e00000000000000000000000030000005
:10216c000808000008080000060800000808000025
:10217c00080800003000000000000000000400000f
:10218c000404000004040000040400000404000023
:10219c00040400000400000000000000000c00001b
:1021ac001010000010100000601000001010000053
:1021bc00101000000c0000000000000000000000e7
:1021cc000000000000000000000000000000000003
:1021dc0000000000000000000c01000032010000b3
:1021ec00c200000000000000000000000000000021
:1021fc0000000000000000000000000020000000b3
:10220c00290000002d0000001a3000000000000022
:10221c001ae40000000000001a9800000100000001
:10222c001a4c0000020000001a000000030000001d
:10223c001ab40000030000001a680000040000003b
:10224c001a1c0000050000001ad000000500000058
:10225c001a840000060000000000000000000000ce
:10226c000000000000000000000000000000000062
:10227c000000000000000000000000000000000052
:10228c000000000000000000000000000000000042
:10229c000000000000000000000000000000000032
:1022ac00000000000000000000fe00000100000023
:1022bc0080ff000007000000e0ff00001f0000008e
:1022cc00f0ff00003f000000f0ff00003f000000a6
:1022dc00f88700007f000000f80300007f0000007a
:1022ec00f80300007f000000fc010000fe0000006d
:1022fc00fc010000fe000000fc010000fe000000dc
:10230c00fc010000fe000000fc010000fe000000cb
:10231c00fc010000fe000000fc010000fe000000bb
:10232c00fc010000fe000000fc010000fe000000ab
:10233c00fc010000fe000000fc010000fe0000009b
:10234c00f80300007f000000f80300007f0000008d
:10235c00f88700007f000000f0ff00003f00000045
:10236c00f0ff00003f000000e0ff00001f00000035
:10237c0080ff00000700000000fe000001000000cc
:10238c000000000000000000000000000000000041
:10239c000000000000000000000000000000000031
:1023ac000000000000000000000000000000000021
:1023bc000000000000000000000000000000000011
:1023cc000000000000000000000000000000000001
:1023dc0000000000000000000000000000000000f1
:1023ec0000000000000000000000000000000000e1
:1023fc0000000000000000000000000000000000d1
:10240c0000000000000000000000000000000000c0
:10241c00000000000000000000f8000001000000b7
:10242c0000fc00000100000000fc000001000000a6
:10243c0000ff000001000000f0ff000001000000a0
:10244c00f0ff000001000000f0ff000001000000a0
:10245c00f0ff00000100000000fc00000100000083
:10246c0000fc00000100000000fc00000100000066
:10247c0000fc00000100000000fc00000100000056
:10248c0000fc00000100000000fc00000100000046
:10249c0000fc00000100000000fc00000100000036
:1024ac0000fc00000100000000fc00000100000026
:1024bc0000fc00000100000000fc00000100000016
:1024cc00f0ff00007f000000f0ff00007f00000024
:1024dc00f0ff00007f000000f0ff00007f00000014
:1024ec00f0ff00007f000000000000000000000072
:1024fc0000000000000000000000000000000000d0
:10250c0000000000000000000000000000000000bf
:10251c0000000000000000000000000000000000af
:10252c00000000000000000000000000000000009f
:10253c00000000000000000000000000000000008f
:10254c00000000000000000000000000000000007f
:10255c00000000000000000000000000000000006f
:10256c00000000000000000000000000000000005f
:10257c00000000000000000000ff0000010000004f
:10258c00f0ff000007000000f0ff00001f0000003b
:10259c00f0ff00003f000000f0ff00003f000000d3
:1025ac00f0c000007f000000308000007f000000c1
:1025bc00000000007f000000000000007f00000011
:1025cc00000000007f000000000000007f00000001
:1025dc00008000003f000000008000003f00000071
:1025ec0000c000001f00000000e000001f00000001
:1025fc0000f000000f00000000f8000007000000d1
:10260c0000fc00000300000000fe000001000000c0
:10261c00807f000000000000c03f000000000000b0
:10262c00e01f000000000000f8ff0000ff000000a9
:10263c00f8ff0000ff000000f8ff0000ff000000a2
:10264c00f8ff0000ff000000f8ff0000ff00000092
:10265c00000000000000000000000000000000006e
:10266c00000000000000000000000000000000005e
:10267c00000000000000000000000000000000004e
:10268c00000000000000000000000000000000003e
:10269c00000000000000000000000000000000002e
:1026ac00000000000000000000000000000000001e
:1026bc00000000000000000000000000000000000e
:1026cc0000000000000000000000000000000000fe
:1026dc0000000000000000000000000000000000ee
:1026ec0080ff000001000000f8ff00000f00000058
:1026fc00f8ff00001f000000f8ff00003f00000082
:10270c00f8ff00007f000000f8c000007f00000010
:10271c00180000007f000000000000007f00000097
:10272c00000000007f000000000000003f000000df
:10273c0000c000003f00000000fe00001f00000071
:10274c0000fe00000f00000000fe0000070000006b
:10275c0000fe00001f00000000fe00007f000000d3
:10276c00000000007f00000000000000fe000000e0
:10277c0000000000fe00000000000000fe00000051
:10278c000c000000ff0000007c8000007f000000b7
:10279c00fcff00007f000000fcff00003f00000079
:1027ac00fcff00001f000000fcff00000f000000f9
:1027bc00c0ff00000100000000000000000000004d
:1027cc0000000000000000000000000000000000fd
:1027dc0000000000000000000000000000000000ed
:1027ec0000000000000000000000000000000000dd
:1027fc0000000000000000000000000000000000cd
:10280c0000000000000000000000000000000000bc
:10281c0000000000000000000000000000000000ac
:10282c00000000000000000000000000000000009c
:10283c00000000000000000000000000000000008c
:10284c00000000000000000000000000000000007c
:10285c0000e000001f00000000f000001f0000005e
:10286c0000f800001f00000000f800001f0000002e
:10287c0000fc00001f00000000fe00001f00000014
:10288c0000df00001f00000080cf00001f000000d0
:10289c00c0cf00001f000000c0c700001f000000d8
:1028ac00e0c300001f000000f0c100001f0000008a
:1028bc00f8c000001f0000007cc000001f000000da
:1028cc007ec000001f000000feff0000ff010000a2
:1028dc00feff0000ff010000feff0000ff010000f2
:1028ec00feff0000ff010000feff0000ff010000e2
:1028fc0000c000001f00000000c000001f0000000e
:10290c0000c000001f00000000c000001f000000fd
:10291c0000c000001f00000000c000001f000000ed
:10292c00000000000000000000000000000000009b
:10293c00000000000000000000000000000000008b
:10294c00000000000000000000000000000000007b
:10295c00000000000000000000000000000000006b
:10296c00000000000000000000000000000000005b
:10297c00000000000000000000000000000000004b
:10298c00000000000000000000000000000000003b
:10299c00000000000000000000000000000000002b
:1029ac00000000000000000000000000000000001b
:1029bc000000000000000000f0ff00007f0000009d
:1029cc00f0ff00007f000000f0ff00007f0000001f
:1029dc00f0ff00007f000000f0ff00007f0000000f
:1029ec00f007000000000000f007000000000000ed
:1029fc00f007000000000000f007000000000000dd
:102a0c00f0ff000003000000f0ff00001f000000ba
:102a1c00f0ff00003f000000f0ff00007f0000000e
:102a2c00f0ff00007f00000070800000ff0000003d
:102a3c0000000000ff00000000000000fe0000008d
:102a4c0000000000fe00000000000000fe0000007e
:102a5c0018000000ff000000f88000007f0000005c
:102a6c00f8ff00007f000000f8ff00003f000000ae
:102a7c00f8ff00001f000000f8ff00000700000036
:102a8c0080ff0000000000000000000000000000bb
:102a9c00000000000000000000000000000000002a
:102aac00000000000000000000000000000000001a
:102abc00000000000000000000000000000000000a
:102acc0000000000000000000000000000000000fa
:102adc0000000000000000000000000000000000ea
:102aec0000000000000000000000000000000000da
:102afc0000000000000000000000000000000000ca
:102b0c0000000000000000000000000000000000b9
:102b1c00000000000000000000f000003f0000007a
:102b2c0000fe00003f00000080ff00003f0000009e
:102b3c00c0ff00003f000000e0ff00003f0000006d
:102b4c00f01f000030000000f00f0000000000003b
:102b5c00f803000000000000f80300000000000073
:102b6c00f8f1000007000000fcfd00001f00000051
:102b7c00fcff00003f000000fcff00007f00000095
:102b8c00fcff00007f000000fc810000ff00000043
:102b9c00fc010000ff000000fc010000fe00000032
:102bac00fc010000fe000000fc010000fe00000023
:102bbc00f8030000fe000000f8030000ff00000016
:102bcc00f88700007f000000f0ff00007f0000008d
:102bdc00e0ff00003f000000e0ff00001f000000cd
:102bec0080ff00000700000000fe00000100000054
:102bfc0000000000000000000000000000000000c9
:102c0c0000000000000000000000000000000000b8
:102c1c0000000000000000000000000000000000a8
:102c2c000000000000000000000000000000000098
:102c3c000000000000000000000000000000000088
:102c4c000000000000000000000000000000000078
:102c5c000000000000000000000000000000000068
:102c6c000000000000000000000000000000000058
:102c7c000000000000000000000000000000000048
:102c8c000000000000000000f8ff0000ff00000042
:102c9c00f8ff0000ff000000f8ff0000ff0000003c
:102cac00f8ff0000ff000000f8ff0000ff0000002c
:102cbc0000000000ff000000008000007f0000000a
:102ccc00008000007f00000000c000003f000000fa
:102cdc0000c000003f00000000e000001f000000ea
:102cec0000f000000f00000000f000000f000000da
:102cfc0000f800000700000000f8000007000000ca
:102d0c0000fc00000300000000fc000003000000b9
:102d1c0000fe00000100000000ff000000000000a9
:102d2c0000ff000000000000807f00000000000099
:102d3c00807f000000000000c03f00000000000089
:102d4c00e03f000000000000e01f00000000000059
:102d5c00f00f000000000000000000000000000068
:102d6c000000000000000000000000000000000057
:102d7c000000000000000000000000000000000047
:102d8c000000000000000000000000000000000037
:102d9c000000000000000000000000000000000027
:102dac000000000000000000000000000000000017
:102dbc000000000000000000000000000000000007
:102dcc0000000000000000000000000000000000f7
:102ddc0000000000000000000000000000000000e7
:102dec00000000000000000000fe000001000000d8
:102dfc0080ff00000f000000e0ff00001f0000003b
:102e0c00f0ff00003f000000f0ff00007f0000001a
:102e1c00f88700007f000000f80300007f0000002e
:102e2c00f80300007f000000f80300007f000000a2
:102e3c00f80f00003f000000f07f00001f000000b2
:102e4c00e0ff00000f000000c0ff000007000000c2
:102e5c0080ff00001f000000e0ff00003f000000aa
:102e6c00f0e300007f000000f88100007f0000000c
:102e7c00fc010000ff000000fc010000fe0000004f
:102e8c00fc010000fe000000fc030000fe0000003e
:102e9c00fc870000ff000000f8ff00007f0000002e
:102eac00f8ff00003f000000f0ff00001f000000d2
:102ebc00c0ff00000f00000000ff00000100000038
:102ecc0000000000000000000000000000000000f6
:102edc0000000000000000000000000000000000e6
:102eec0000000000000000000000000000000000d6
:102efc0000000000000000000000000000000000c6
:102f0c0000000000000000000000000000000000b5
:102f1c0000000000000000000000000000000000a5
:102f2c000000000000000000000000000000000095
:102f3c000000000000000000000000000000000085
:102f4c000000000000000000000000000000000075
:102f5c0000fe00000100000080ff000007000000e0
:102f6c00e0ff00001f000000f0ff00003f00000029
:102f7c00f8ff00003f000000f88700007f00000011
:102f8c00fc0300007f000000fc0100007f0000003b
:102f9c00fc010000fe000000fc010000fe0000002f
:102fac00fc010000fe000000fc030000fe0000001d
:102fbc00fc070000fe000000f8ff0000ff0000000e
:102fcc00f8ff0000ff000000f0ff0000ff00000011
:102fdc00e0ff0000fe000000803f00007e000000cb
:102fec00000000007f000000008000007f00000057
:102ffc0000c000003f00000030f000003f00000067
:10300c00f0ff00001f000000f0ff00000f000000a8
:10301c00f0ff000007000000f0ff000001000000be
:10302c00f03f000000000000000000000000000065
:10303c000000000000000000000000000000000084
:10304c000000000000000000000000000000000074
:10305c000000000000000000000000000000000064
:10306c000000000000000000000000002000000034
:10307c007e0000000e000000038400000100000030
:10308c00049200000100000006a0000001000000f6
:10309c0009ae00000100000007ca0000010000009a
:1030ac000dd800000100000009f400000100000030
:1030bc000310000002000000051e000002000000ca
:1030cc00052c000002000000073a0000020000007e
:1030dc000948000002000000046400000200000027
:1030ec0005720000020000000480000002000000d5
:1030fc00078e000002000000079c00000200000088
:10310c0007aa00000200000007b80000020000003f
:10311c0007c600000200000007d4000002000000f7
:10312c0007e200000200000007f0000002000000af
:10313c0007fe000002000000070c00000300000066
:10314c00071a000003000000042800000300000020
:10315c0004360000030000000944000003000000d6
:10316c000960000003000000097c0000030000005f
:10317c0006980000030000000aa6000003000000ef
:10318c0008c200000300000008d00000030000008b
:10319c0007de00000300000008ec00000300000044
:1031ac0007fa0000030000000708000004000000fc
:1031bc0008160000040000000824000004000000b1
:1031cc00053200000400000006400000040000006e
:1031dc00084e000004000000065c00000400000023
:1031ec00096a0000040000000886000004000000ca
:1031fc00099400000400000007b000000400000067
:10320c0009be00000400000008da00000400000001
:10321c0007e800000400000007f6000004000000ae
:10322c000804000005000000081200000500000062
:10323c000b20000005000000083c00000500000009
:10324c00074a0000050000000758000005000000b8
:10325c000566000005000000077400000500000072
:10326c000582000005000000099000000500000028
:10327c0007ac00000500000007ba000005000000c4
:10328c0007c800000500000007d60000050000007c
:10329c0006e400000500000007f200000500000035
:1032ac000700000006000000050e000006000000ec
:1032bc00071c000006000000072a000006000000a2
:1032cc000338000006000000044600000600000061
:1032dc000754000006000000036200000600000016
:1032ec000b70000006000000078c000006000000b8
:1032fc00079a00000600000007a800000600000066
:10330c0007b600000600000005c40000060000001f
:10331c0006d200000600000005e0000006000000d8
:10332c0007ee00000600000006fc0000060000008e
:10333c000a0a000007000000072600000700000032
:10334c0007340000070000000642000007000000e0
:10335c000750000007000000055e00000700000099
:10336c00076c000007000000097a0000070000004d
:10337c000000000000000000000000000000000041
:10338c000000000000000000000000000000000031
:10339c000000000006060000060600000600000003
:1033ac00060000000000000000000000001b0000f0
:1033bc001b1b0000000000000000000000000000cb
:1033cc0000000000000000000000000000000000f1
:1033dc00000000005000000050000000fc00000045
:1033ec00280000007e000000140000001400000003
:1033fc0000000000000000000000000000000000c1
:10340c00080800001c2e00000e1c0000383a0000ba
:10341c001c08000008000000000000000000000074
:10342c0000000000000000000c01000092000000f1
:10343c0092060000520900002c090000200900002f
:10344c00100600000000000000000000000000005a
:10345c000000000000000000000000000000000060
:10346c001c0000003600000036000000dc000000ec
:10347c007600000066000000dc0000000000000088
:10348c00000000000000000000000000000300002d
:10349c00030300000000000000000000000000001a
:1034ac000000000000000000001800000c060000e6
:1034bc000606000006060000060c000018000000be
:1034cc000000000000030000060c00000c0c0000c3
:1034dc000c0c00000c0600000300000000000000b3
:1034ec00000800002a1c00002a0800000000000050
:1034fc0000000000000000000000000000000000c0
:10350c00000000000000000010000000100000008f
:10351c0010000000fe000000100000001000000071
:10352c00100000000000000000000000000000007f
:10353c00000000000000000000000000000000007f
:10354c00000600000606000002000000000000005b
:10355c000000000000000000000e00000000000051
:10356c00000000000000000000000000000000004f
:10357c000000000000000000000600000600000033
:10358c0000000000000000000020000020100000df
:10359c0010080000080400000402000002000000f3
:1035ac0000000000000000001c3600003636000051
:1035bc00363600001c000000000000000000000077
:1035cc0000000000181c000018180000181800005b
:1035dc003c000000000000000000000000000000a3
:1035ec001c320000301800000c0600003e000000e9
:1035fc000000000000000000000000001c32000071
:10360c00301c0000303200001c00000000000000e4
:10361c0000000000000000003038000034320000d0
:10362c007e300000300000000000000000000000b0
:10363c00000000003e0600001e300000303200008a
:10364c001c00000000000000000000000000000052
:10365c001c0600001e360000363600001c00000060
:10366c000000000000000000000000003e300000e0
:10367c00181800000c0c00000600000000000000f0
:10368c0000000000000000001c360000361c00008a
:10369c00363600001c000000000000000000000096
:1036ac00000000001c360000363600003c300000e4
:1036bc001c000000000000000000000000000000e2
:1036cc0000000000060600000006000006000000d6
:1036dc0000000000000000000000000000000000de
:1036ec0006060000000600000606000002000000ae
:1036fc0000000000000000000000000000000000be
:10370c00c0000000300000000c00000002000000af
:10371c000c00000030000000c000000000000000a1
:10372c00000000000000000000000000000000008d
:10373c00000000000000000000000000000000007d
:10374c00fe0000000000000000000000fe00000071
:10375c00000000000000000000000000000000005d
:10376c00000000000000000000000000000000004d
:10377c00060000001800000060000000800000003f
:10378c0060000000180000000600000000000000af
:10379c00000000000000000000000000000000001d
:1037ac000e190000180c00000600000006000000b6
:1037bc0000000000000000000000000000000000fd
:1037cc00000000007800000084000000720100007e
:1037dc004a0100004a010000f20000000400000051
:1037ec007800000000000000000000000000000055
:1037fc0000000000383800006c6c00007cc6000033
:10380c00c6000000000000000000000000000000e6
:10381c003e660000663e0000666600003e0000004a
:10382c000000000000000000000000001c2600004a
:10383c0006060000062600001c0000000000000028
:10384c0000000000000000003e660000c6c600003c
:10385c00c66600003e0000000000000000000000f2
:10386c00000000003e060000063e000006060000b8
:10387c003e000000000000000000000000000000fe
:10388c003e060000063e0000060600000600000092
:10389c000000000000000000000000003c4600009a
:1038ac0006060000766600007c00000000000000a8
:1038bc00000000000000000066660000667e00004c
:1038cc0066660000660000000000000000000000ba
:1038dc00000000001e0c00000c0c00000c0c000082
:1038ec001e000000000000000000000000000000ae
:1038fc001e18000018180000181800000f00000017
:10390c00000000000000000000000000663600000f
:10391c001e0e00001e3600006600000000000000b5
:10392c000000000000000000060600000606000073
:10393c00060600003e000000000000000000000031
:10394c0000000000000000000000000082000000e9
:10395c00c6000000ee000000da000000da000000f3
:10396c00c2000000c20000000000000000000000c7
:10397c0000000000000000000000000042460000b3
:10398c004e5a00007262000062000000000000004d
:10399c00000000000000000000000000000000001b
:1039ac007c000000c6000000c6000000c60000003d
:1039bc00c6000000c60000007c00000000000000f3
:1039cc0000000000000000000000000000000000eb
:1039dc003e660000666600003e0600000600000021
:1039ec0000000000000000000000000000000000cb
:1039fc00000000007c000000c6000000c6000000b3
:103a0c00c6000000c6000000c60000007c000000dc
:103a1c0030000000e000000000000000000000008a
:103a2c00000000003e660000663e000036660000a6
:103a3c00c6000000000000000000000000000000b4
:103a4c001c260000061c0000303200001c00000088
:103a5c000000000000000000000000003f0c00000f
:103a6c000c0c00000c0c00000c000000000000000e
:103a7c0000000000000000006666000066660000a2
:103a8c00666600003c000000000000000000000022
:103a9c000000000066660000663c00003c3c000034
:103aac0018000000000000000000000000000000f2
:103abc000000000000000000660600006606000022
:103acc006c0300006c0300009c03000098010000d4
:103adc009801000000000000000000000000000041
:103aec000000000000000000666600003c180000aa
:103afc003c660000660000000000000000000000b2
:103b0c0000000000666600003c1800001818000059
:103b1c001800000000000000000000000000000081
:103b2c003e300000180c0000060600003e000000ad
:103b3c000000000000000000000e0000060600005f
:103b4c000606000006060000060600000e00000037
:103b5c000000000000020000020400000408000045
:103b6c0008100000102000002000000000000000e1
:103b7c00000e00000c0c00000c0c00000c0c0000e3
:103b8c000c0c00000e000000000000000000000003
:103b9c0000000000000000001000000038000000d1
:103bac006c000000c60000000000000000000000d7
:103bbc0000000000000000000000000000000000f9
:103bcc0000000000000000000000000000000000e9
:103bdc0000000000000000007f000000000000005a
:103bec00000c0000180000000000000000000000a5
:103bfc0000000000000000000000000000000000b9
:103c0c00000000001e3000003e3300003e000000ab
:103c1c00000000000000000000030000030300008f
:103c2c001f330000333300001f00000000000000b1
:103c3c000000000000000000000000001e03000057
:103c4c00030300001e000000000000000000000044
:103c5c0000300000303000003e33000033330000f1
:103c6c003e0000000000000000000000000000000a
:103c7c00000000001e3300003f0300003e00000067
:103c8c000000000000000000001c00000606000000
:103c9c001f060000060600000600000000000000e1
:103cac000000000000000000000000003e33000097
:103cbc00333300003e3000001e0000000000000006
:103ccc0000030000030300001f3300003333000027
:103cdc0033000000000000000000000000000000a5
:103cec0003000000030300000303000003000000b6
:103cfc0000000000000000000000000006000000b2
:103d0c00070600000606000006060000030000007f
:103d1c00000000000003000003030000331b000040
:103d2c000f1b00003300000000000000000000002a
:103d3c000003000003030000030300000303000062
:103d4c000300000000000000000000000000000064
:103d5c000000000000000000000000000000000057
:103d6c00df010000330300003303000033030000c5
:103d7c003303000000000000000000000000000001
:103d8c000000000000000000000000001f330000d5
:103d9c00333300003300000000000000000000007e
:103dac0000000000000000001e3300003333000050
:103dbc001e000000000000000000000000000000d9
:103dcc00000000001f330000333300001f0300000d
:103ddc0003000000000000000000000000000000d4
:103dec003e330000333300003e3000003000000052
:103dfc000000000000000000000000001b1f00007d
:103e0c00030300000300000000000000000000009d
:103e1c0000000000000000001e0300001f1800003e
:103e2c000f00000000000000000000000000000077
:103e3c00060600001f060000060600001c0000001d
:103e4c000000000000000000000000000000000066
:103e5c0033330000333300003e000000000000004c
:103e6c0000000000000000000000000033330000e0
:103e7c001e1e00000c0000000000000000000000ee
:103e8c000000000000000000000000000000000026
:103e9c0000000000db000000db000000db00000085
:103eac00660000006600000000000000000000003a
:103ebc0000000000000000000000000000000000f6
:103ecc00331e00000c1e0000330000000000000038
:103edc000000000000000000000000003333000070
:103eec001e1e00000c0c000006000000000000006c
:103efc0000000000000000001f0c00000603000082
:103f0c001f00000000000000000000000030000056
:103f1c0018180000180e00001818000018180000df
:103f2c003000000000000000000400000404000049
:103f3c000404000004040000040400000400000059
:103f4c0000000000000600000c0c00000c38000003
:103f5c000c0c00000c0c000006000000000000001f
:103f6c000000000000000000000000000000000045
:103f7c00000000008c0000009200000062000000b5
:103f8c000000000000000000000000000000000025
:103f9c000000000000000000200000007e00000077
:103fac0010000000048400000100000005940000d3
:103fbc000100000007a40000010000000ab400008a
:103fcc000100000009d40000010000000ff4000003
:103fdc00010000000a14000002000000043400007c
:103fec00020000000744000002000000075400001b
:103ffc000200000009640000020000000a840000b6
:10400c000200000004a400000200000006b400003e
:10401c000200000004c400000200000008d40000ec
:10402c000200000009e40000020000000904000086
:10403c0003000000092400000300000009440000f4
:10404c000300000009640000030000000984000064
:10405c000300000009a400000300000009c40000d4
:10406c000300000009e40000030000000904000044
:10407c0004000000052400000400000005340000ca
:10408c00040000000a440000040000000a64000060
:10409c00040000000a8400000400000007a40000d3
:1040ac00040000000cb400000400000009d400005f
:1040bc000400000009f400000400000009140000d2
:1040cc00050000000a340000050000000854000040
:1040dc000500000008640000050000000a740000e0
:1040ec00050000000a9400000500000007b4000061
:1040fc000500000007c400000500000009d4000002
:10410c000500000008f40000050000000b0400008e
:10411c00060000000a240000060000000a4400000b
:10412c000600000009640000060000000a8400007c
:10413c000600000009a400000600000009c40000ed
:10414c000600000008e40000060000000af400006d
:10415c000600000009140000070000000e340000e7
:10416c00070000000954000007000000097400005b
:10417c0007000000089400000700000007a40000de
:10418c000700000008b400000700000007c400008e
:10419c00070000000ad400000700000009f400002a
:1041ac00070000000914000008000000083400009b
:1041bc00080000000844000008000000075400003c
:1041cc0008000000086400000800000008740000eb
:1041dc00080000000584000008000000089400009e
:1041ec000800000009a400000800000004c400003e
:1041fc000800000005d400000800000008e40000de
:10420c000800000004f40000080000000d04000089
:10421c000900000009240000090000000844000007
:10422c0009000000085400000900000008640000a8
:10423c00090000000674000009000000078400005b
:10424c0009000000059400000900000009a400000a
:10425c000900000008c40000090000000cd4000094
:10426c000900000008f40000090000000804000028
:10427c000a000000071400000a00000009240000d6
:10428c000a000000074400000a0000000954000066
:10429c000a0000000a7400000a0000000000000080
:1042ac000000000000000000000000000000000002
:1042bc0000000000000000000000000000000000f2
:1042cc0000000000060600000606000006060000be
:1042dc0000060000060000000000000000000000c6
:1042ec000036000036360000000000000000000020
:1042fc0000000000000000000000000000000000b2
:10430c000000000000000000000000009000000011
:10431c0090000000fc010000fc01000048000000bf
:10432c00fe000000fe00000024000000240000003d
:10433c000000000000000000000000000000000071
:10434c000000000000000000100000001000000041
:10435c007c00000096000000160000007e000000ab
:10436c00fc000000d0000000d20000007c00000027
:10437c001000000010000000000000000000000011
:10438c000000000000000000000000001c02000003
:10439c003602000036010000361d0000b636000063
:1043ac005c3600004036000020360000201c000067
:1043bc0000000000000000000000000000000000f1
:1043cc000000000000000000000000001c000000c5
:1043dc003600000036000000360000009c01000092
:1043ec00b600000066000000c6000000bc01000022
:1043fc0000000000000000000000000000000000b1
:10440c00000600000606000000000000000000008e
:10441c000000000000000000000000000000000090
:10442c00001800000c0c0000060600000606000038
:10443c00060600000c0c0000180000000000000034
:10444c00000c000018180000303000003030000064
:10445c0030300000181800000c00000000000000b4
:10446c0000000000000000001000000054000000dc
:10447c00380000003800000054000000100000005c
:10448c000000000000000000000000000000000020
:10449c000000000000000000000000000000000010
:1044ac000000000000000000000000000000000000
:1044bc00100000001000000010000000fe000000c2
:1044cc0010000000100000001000000000000000b0
:1044dc0000000000000000000000000000000000d0
:1044ec0000000000000000000000000000000000c0
:1044fc00000600000606000002000000000000009c
:10450c000000000000000000000000001e00000081
:10451c00000000000000000000000000000000008f
:10452c00000000000000000000000000000000007f
:10453c000006000006000000000000000000000063
:10454c0000600000603000003030000018180000df
:10455c000c0c00000c06000006000000000000001f
:10456c000000000000000000000000007c000000c3
:10457c00c6000000c6000000c6000000c600000017
:10458c00c6000000c6000000c60000007c00000051
:10459c00000000000000000000000000000000000f
:1045ac0000000000000000000000000030000000cf
:1045bc003c00000030000000300000003000000023
:1045cc00300000003000000030000000fc00000053
:1045dc0000000000000000000000000000000000cf
:1045ec000000000000000000000000007c00000043
:1045fc00c6000000c0000000c00000006000000009
:10460c0030000000180000000c000000fe0000004c
:10461c00000000000000000000000000000000008e
:10462c000000000000000000000000007c00000002
:10463c00c6000000c0000000c000000078000000b0
:10464c00c0000000c0000000c60000007c0000009c
:10465c00000000000000000000000000000000004e
:10466c0000000000000000000000000060000000de
:10467c00700000006800000068000000640000008a
:10468c0062000000fe0000006000000060000000fe
:10469c00000000000000000000000000000000000e
:1046ac00000000000000000000000000fc00000002
:1046bc000c0000000c0000007c000000c00000009a
:1046cc00c0000000c0000000c60000007c0000001c
:1046dc0000000000000000000000000000000000ce
:1046ec000000000000000000000000007800000046
:1046fc000c000000060000007e000000c600000058
:10470c00c6000000c6000000c60000007c000000cf
:10471c00000000000000000000000000000000008d
:10472c00000000000000000000000000fe0000007f
:10473c00c0000000600000006000000030000000bd
:10474c003000000018000000180000000c000000f1
:10475c00000000000000000000000000000000004d
:10476c000000000000000000000000007c000000c1
:10477c00c6000000c6000000c60000007c0000005f
:10478c00c6000000c6000000c60000007c0000004f
:10479c00000000000000000000000000000000000d
:1047ac000000000000000000000000007c00000081
:1047bc00c6000000c6000000c6000000c6000000d5
:1047cc00fc000000c0000000600000003c00000085
:1047dc0000000000000000000000000000000000cd
:1047ec0000000000000000000606000000000000b1
:1047fc0000060000060000000000000000000000a1
:10480c000000000000000000060600000000000090
:10481c000006000006060000020000000000000078
:10482c00000000000000000000000000000000007c
:10483c00800000006000000018000000060000006e
:10484c00060000001800000060000000800000005e
:10485c00000000000000000000000000000000004c
:10486c00000000000000000000000000000000003c
:10487c000000000000000000fe000000000000002e
:10488c0000000000fe00000000000000000000001e
:10489c00000000000000000000000000000000000c
:1048ac0000000000000000000000000000000000fc
:1048bc00020000000c00000030000000c0000000ee
:1048cc00c0000000300000000c00000002000000de
:1048dc0000000000000000000000000000000000cc
:1048ec00000000001c320000301800000c0c00000e
:1048fc00000c00000c000000000000000000000094
:10490c00000000000000000000000000f0000000ab
:10491c000c030000f4020000da040000da040000ca
:10492c00da040000da040000f40300000c000000bc
:10493c00f00000000000000000000000000000007b
:10494c000000000000000000000000003800000023
:10495c00380000006c0000006c0000006c000000cf
:10496c006c000000fe000000c6000000c600000045
:10497c00000000000000000000000000000000002b
:10498c000000000000000000000000003e000000dd
:10499c006600000066000000660000007e0000005b
:1049ac00c6000000c6000000c60000007e0000002b
:1049bc0000000000000000000000000000000000eb
:1049cc000000000000000000000000007800000063
:1049dc008c0000000600000006000000060000002d
:1049ec0006000000060000008c00000078000000ab
:1049fc0000000000000000000000000000000000ab
:104a0c000000000000000000000000007e0000001c
:104a1c00c60000008601000086010000860100002f
:104a2c008601000086010000c60000007e00000028
:104a3c00000000000000000000000000000000006a
:104a4c00000000007e060000060600007e06000046
:104a5c00060600007e0000000000000000000000c0
:104a6c00000000007e060000060600007e06000026
:104a7c000606000006000000000000000000000018
:104a8c00000000000000000000000000f800000022
:104a9c000c010000060000000600000006000000eb
:104aac00e6010000860100008c010000f801000006
:104abc0000000000000000000000000000000000ea
:104acc000000000000000000000000008601000053
:104adc00860100008601000086010000fe01000036
:104aec00860100008601000086010000860100009e
:104afc0000000000000000000000000000000000aa
:104b0c00000000001e0c00000c0c00000c0c00003f
:104b1c000c0c00001e000000000000000000000053
:104b2c00000000003e30000030300000303000004b
:104b3c00303000001f0000000000000000000000ea
:104b4c00000000000000000000000000c600000093
:104b5c0066000000360000001e0000000e00000081
:104b6c001e0000003600000066000000c6000000b9
:104b7c000000000000000000000000000000000029
:104b8c0000000000060600000606000006060000f5
:104b9c0006060000fe0000000000000000000000ff
:104bac0000000000000000000000000006030000f0
:104bbc008e0300008e0300005a0300005a0300000d
:104bcc003203000032030000020300000203000065
:104bdc0000000000000000000000000000000000c9
:104bec0000000000000000000000000006010000b2
:104bfc000e0100001a0100001a0100003201000031
:104c0c006201000062010000c2010000820100008c
:104c1c000000000000000000000000000000000088
:104c2c00000000000000000000000000f800000080
:104c3c008c010000060300000603000006030000c0
:104c4c0006030000060300008c010000f8000000c1
:104c5c000000000000000000000000000000000048
:104c6c000000000000000000000000007e000000ba
:104c7c00c6000000c6000000c6000000c600000010
:104c8c007e00000006000000060000000600000088
:104c9c000000000000000000000000000000000008
:104cac00000000000000000000000000f800000000
:104cbc008c01000006030000060300000603000040
:104ccc0006030000060300008c010000f800000041
:104cdc0060000000c00300000000000000000000a5
:104cec000000000000000000000000007e0000003a
:104cfc00c6000000c6000000c60000007e000000d8
:104d0c003600000066000000c600000086010000ae
:104d1c000000000000000000000000000000000087
:104d2c000000000000000000000000007c000000fb
:104d3c0086000000060000000e0000007c00000051
:104d4c00e0000000c0000000c20000007c00000079
:104d5c000000000000000000000000000000000047
:104d6c0000000000ff1800001818000018180000c0
:104d7c0018180000180000000000000000000000df
:104d8c000000000000000000000000008601000090
:104d9c0086010000860100008601000086010000eb
:104dac00860100008601000086010000fc00000066
:104dbc0000000000000000000000000000000000e7
:104dcc00000000000000000000000000c600000011
:104ddc00c6000000c60000006c0000006c00000063
:104dec006c000000380000003800000038000000a3
:104dfc0000000000000000000000000000000000a7
:104e0c00000000000000000000000000c6180000b8
:104e1c00c6180000c6180000cc0c0000ec0d0000f9
:104e2c002c0f0000380700001806000018060000c0
:104e3c000000000000000000000000000000000066
:104e4c00000000000000000000000000c600000090
:104e5c00ce0000006c00000038000000380000009c
:104e6c00380000006c000000e6000000c6000000e6
:104e7c000000000000000000000000000000000026
:104e8c00000000000000000000000000860100008f
:104e9c0086010000cc00000078000000300000000b
:104eac003000000030000000300000003000000036
:104ebc0000000000000000000000000000000000e6
:104ecc00000000007e30000030180000180c0000bc
:104edc000c0600007e000000000000000000000036
:104eec00001e000006060000060600000606000074
:104efc0006060000060600001e0000000000000070
:104f0c0000060000060c00000c0c00001818000035
:104f1c003030000030600000600000000000000035
:104f2c00001e0000181800001818000018180000c7
:104f3c0018180000181800001e00000000000000e7
:104f4c000000000000000000000000003000000025
:104f5c0078000000cc00000086010000000000007a
:104f6c000000000000000000000000000000000035
:104f7c000000000000000000000000000000000025
:104f8c000000000000000000000000000000000015
:104f9c000000000000000000000000000000000005
:104fac0000000000000000000000000000000000f5
:104fbc0000000000ff0100000000000000000000e5
:104fcc0000000000000000000c00000018000000b1
:104fdc0000000000000000000000000000000000c5
:104fec0000000000000000000000000000000000b5
:104ffc0000000000000000000000000000000000a5
:10500c0000000000000000003c6000007c66000016
:10501c00666600007c00000000000000000000003c
:10502c0000060000060600003e66000066660000f2
:10503c00666600003e00000000000000000000005a
:10504c0000000000000000003c46000006060000c6
:10505c00064600003c0000000000000000000000bc
:10506c0000600000606000007c6600006666000066
:10507c00666600007c0000000000000000000000dc
:10508c0000000000000000003c660000667e00008e
:10509c00064600003c00000000000000000000007c
:1050ac00001c0000060600001f060000060600009b
:1050bc0006060000060000000000000000000000d2
:1050cc0000000000000000007c6600006666000026
:1050dc00666600007c6000003c00000000000000e0
:1050ec0000000000000000000600000006000000a8
:1050fc00060000003e000000660000006600000094
:10510c0066000000660000006600000066000000fb
:10511c000000000000000000000000000000000083
:10512c00000600000600000006060000060600004f
:10513c000606000006000000000000000000000051
:10514c00000c00000c0000000e0c00000c0c000009
:10515c000c0c00000c0c000007000000000000000c
:10516c000006000006060000663600001e1e000049
:10517c003e660000c60000000000000000000000b9
:10518c0000060000060600000606000006060000e9
:10519c0006060000060000000000000000000000f1
:1051ac0000000000000000000000000000000000f3
:1051bc000000000036030000ee060000660600004a
:1051cc006606000066060000660600006606000023
:1051dc0000000000000000000000000000000000c3
:1051ec0000000000000000000000000000000000b3
:1051fc00000000003e000000660000006600000099
:10520c0066000000660000006600000066000000fa
:10521c000000000000000000000000000000000082
:10522c0000000000000000003c6600006666000004
:10523c00666600003c00000000000000000000005a
:10524c0000000000000000003e66000066660000e2
:10525c00666600003e06000006000000000000002c
:10526c0000000000000000007c6600006666000084
:10527c00666600007c60000060000000000000001a
:10528c000000000000000000363e00000606000092
:10529c0006060000060000000000000000000000f0
:1052ac0000000000000000003c060000061c00008e
:1052bc00303000001e000000000000000000000064
:1052cc0000000000060600001f0600000606000095
:1052dc00060600001c00000000000000000000009a
:1052ec0000000000000000000000000000000000b2
:1052fc000000000066000000660000006600000070
:10530c006600000066000000660000007c000000e3
:10531c000000000000000000000000000000000081
:10532c00000000000000000066660000663c000003
:10533c003c3c0000180000000000000000000000d1
:10534c000000000000000000000000000000000051
:10535c0000000000660600006606000066060000fd
:10536c00960600009c0300000c0300000c030000d8
:10537c000000000000000000000000000000000021
:10538c000000000000000000666600003c180000f1
:10539c003c660000660000000000000000000000f9
:1053ac00000000000000000066660000663c000083
:1053bc003c3c0000181800000c000000000000002d
:1053cc0000000000000000003e300000181c00002f
:1053dc000c0600003e000000000000000000000071
:1053ec000000000000000000700000001800000029
:1053fc001800000018000000180000000e0000004b
:10540c001800000018000000180000001800000030
:10541c0018000000700000000000000000000000f8
:10542c00000c00000c0c00000c0c00000c0c00001c
:10543c000c0c00000c0c00000c0000000000000024
:10544c0000000000000000001c0000003000000004
:10545c00300000003000000030000000e0000000d0
:10546c003000000030000000300000003000000070
:10547c00300000001c0000000000000000000000d4
:10548c000000000000000000000000000000000010
:10549c0000000000000000000c01000012010000e0
:1054ac0022010000c200000000000000000000000b
:1054bc0000000000000000000000000000000000e0
:1054cc00200000007e000000120000000584000097
:1054dc0001000000069600000100000008a8000072
:1054ec00010000000cba0000010000000ade000000
:1054fc000100000012020000020000000c38000045
:10550c0002000000055c000002000000086e0000b4
:10551c000200000008800000020000000a92000057
:10552c00020000000cb600000200000005da0000ca
:10553c000200000007ec00000200000005fe000065
:10554c00020000000a100000030000000a340000f2
:10555c00030000000a580000030000000a7c000051
:10556c00030000000aa00000030000000ac40000b1
:10557c00030000000ae80000030000000a0c000011
:10558c00040000000a300000040000000a5400006f
:10559c00040000000a78000004000000069c0000d3
:1055ac000400000006ae0000040000000cc0000067
:1055bc00040000000ce40000040000000c080000d3
:1055cc0005000000092c0000050000000d50000033
:1055dc00050000000b740000050000000b98000093
:1055ec00050000000abc0000050000000ce00000f3
:1055fc00050000000a040000060000000928000055
:10560c00060000000b4c0000060000000c700000af
:10561c0006000000089400000600000008a6000028
:10562c00060000000bb800000600000009dc0000ba
:10563c00060000000d000000070000000c24000014
:10564c00070000000c480000070000000a6c000076
:10565c00070000000c900000070000000bb40000d5
:10566c00070000000ad80000070000000afc000038
:10567c00070000000b200000080000000b44000095
:10568c000800000010680000080000000b8c0000ef
:10569c00080000000ab00000080000000ad4000056
:1056ac000800000008f80000080000000a0a0000ca
:1056bc0009000000082e0000090000000c4000004a
:1056cc00090000000a640000090000000a880000bc
:1056dc000900000009ac0000090000000ad000001d
:1056ec000900000008f40000090000000a06000090
:1056fc000a000000092a00000a000000064e000003
:10570c000a0000000a6000000a0000000a84000081
:10571c000a00000005a800000a00000006ba0000fc
:10572c000a00000009cc00000a00000005f000008f
:10573c000a0000000f0200000b0000000a26000007
:10574c000b0000000a4a00000b0000000a6e00006b
:10575c000b0000000a9200000b00000007b60000ce
:10576c000b00000008c800000b00000006da000067
:10577c000b0000000aec00000b00000009100000f8
:10578c000c0000000e3400000c0000000958000052
:10579c000c000000097c00000c00000008a00000b8
:1057ac000c0000000ab200000c00000008d600003b
:1057bc000c0000000ae800000c0000000c0c0000bb
:1057cc000d000000000000000000000000000000c0
:1057dc0000000000000000000000000000000000bd
:1057ec0000000000000000000000000000000000ad
:1057fc00000c00000c0c00000c0c00000c0c000049
:10580c00000c00000c000000000000000000000074
:10581c0000000000666600006666000000000000e4
:10582c00000000000000000000000000000000006c
:10583c00000000000000000000000000000000005c
:10584c00000000002002000020030000fc07000004
:10585c00fc0700001001000088000000fe0300009f
:10586c00fe030000440000004400000000000000a3
:10587c00000000000000000000000000000000001c
:10588c00000000002000000020000000f8000000d4
:10589c002c010000260000002e0000003c0000003f
:1058ac00f0000000d001000090010000d2000000c8
:1058bc007c00000010000000100000000000000040
:1058cc0000000000000000000000000000000000cc
:1058dc00000000000000000000000000003c000080
:1058ec0010000000660800000066000004000000c4
:1058fc0066f40000006600009a0100006699000042
:10590c0001bc0000980100008098000001400000dc
:10591c009801000020f000000000000000000000d2
:10592c00000000000000000000000000000000006b
:10593c00000000000000000000000000000000005b
:10594c0078000000cc000000cc0000006c000000cf
:10595c00380600006c060000c60600008603000036
:10596c008c030000f806000000000000000000009e
:10597c00000000000000000000000000060600000f
:10598c0006060000000000000000000000000000ff
:10599c0000000000000000000000000000000000fb
:1059ac00301800000c0c0000060600000606000073
:1059bc00060600000c0c000018300000000000006f
:1059cc00000000000c180000303000006060000087
:1059dc00606000006060000030300000180c0000b7
:1059ec0000000000000000000000000000000000ab
:1059fc00100000009200000054000000380000006d
:105a0c005400000092000000100000000000000094
:105a1c00000000000000000000000000000000007a
:105a2c00000000000000000000000000000000006a
:105a3c00000000000000000000000000000000005a
:105a4c0020000000200000002000000020000000ca
:105a5c00fe030000200000002000000020000000d9
:105a6c00200000000000000000000000000000000a
:105a7c00000000000000000000000000000000001a
:105a8c0000000000000000000e06000006030000ed
